{
    "_format": "hh-sol-artifact-1",
    "contractName": "BuyMeACoffe",
    "sourceName": "contracts/BuyMeACoffe.sol",
    "abi": [
        {
            "inputs": [],
            "stateMutability": "nonpayable",
            "type": "constructor"
        },
        {
            "anonymous": false,
            "inputs": [
                {
                    "indexed": false,
                    "internalType": "address",
                    "name": "from",
                    "type": "address"
                },
                {
                    "indexed": false,
                    "internalType": "uint256",
                    "name": "amount",
                    "type": "uint256"
                },
                {
                    "indexed": false,
                    "internalType": "uint256",
                    "name": "timestamp",
                    "type": "uint256"
                }
            ],
            "name": "transfer",
            "type": "event"
        },
        {
            "inputs": [
                {
                    "internalType": "uint256",
                    "name": "amount",
                    "type": "uint256"
                }
            ],
            "name": "addToBlockchain",
            "outputs": [],
            "stateMutability": "payable",
            "type": "function"
        },
        {
            "inputs": [],
            "name": "withdrawTips",
            "outputs": [],
            "stateMutability": "nonpayable",
            "type": "function"
        }
    ],
    "bytecode": "0x608060405234801561001057600080fd5b50336000806101000a81548173ffffffffffffffffffffffffffffffffffffffff021916908373ffffffffffffffffffffffffffffffffffffffff160217905550610394806100606000396000f3fe6080604052600436106100295760003560e01c80633aaa74b21461002e578063dfa9123b14610045575b600080fd5b34801561003a57600080fd5b50610043610061565b005b61005f600480360381019061005a9190610210565b6100c1565b005b60008054906101000a900473ffffffffffffffffffffffffffffffffffffffff1673ffffffffffffffffffffffffffffffffffffffff166108fc479081150290604051600060405180830381858888f193505050506100bf57600080fd5b565b60003411610104576040517f08c379a00000000000000000000000000000000000000000000000000000000081526004016100fb906102b1565b60405180910390fd5b600160405180606001604052803373ffffffffffffffffffffffffffffffffffffffff16815260200183815260200142815250908060018154018082558091505060019003906000526020600020906003020160009091909190915060008201518160000160006101000a81548173ffffffffffffffffffffffffffffffffffffffff021916908373ffffffffffffffffffffffffffffffffffffffff160217905550602082015181600101556040820151816002015550507f095bcdb627e21ee89c38dc5069f89166d365b3cd89be90dff87796149e866e2f3382426040516101f09392919061027a565b60405180910390a150565b60008135905061020a81610347565b92915050565b60006020828403121561022257600080fd5b6000610230848285016101fb565b91505092915050565b610242816102e2565b82525050565b6000610255601c836102d1565b91506102608261031e565b602082019050919050565b61027481610314565b82525050565b600060608201905061028f6000830186610239565b61029c602083018561026b565b6102a9604083018461026b565b949350505050565b600060208201905081810360008301526102ca81610248565b9050919050565b600082825260208201905092915050565b60006102ed826102f4565b9050919050565b600073ffffffffffffffffffffffffffffffffffffffff82169050919050565b6000819050919050565b7f63616e27742062757920636f6666652077697468203020657468657200000000600082015250565b61035081610314565b811461035b57600080fd5b5056fea2646970667358221220f8d466959e0e34a8ca4a718f4839a5bc861a9873051c588db2cd83bfdcf7a2dc64736f6c63430008040033",
    "linkReferences": {},
    "deployedLinkReferences": {}
}